{
    "contractName": "UsersContract",
    "abi": [
        {
            "inputs": [
                {
                    "internalType": "address",
                    "name": "addr",
                    "type": "address"
                }
            ],
            "name": "getUser",
            "outputs": [
                {
                    "internalType": "string",
                    "name": "",
                    "type": "string"
                },
                {
                    "internalType": "string",
                    "name": "",
                    "type": "string"
                }
            ],
            "stateMutability": "view",
            "type": "function"
        },
        {
            "inputs": [
                {
                    "internalType": "string",
                    "name": "name",
                    "type": "string"
                },
                {
                    "internalType": "string",
                    "name": "surname",
                    "type": "string"
                }
            ],
            "name": "join",
            "outputs": [],
            "stateMutability": "nonpayable",
            "type": "function"
        },
        {
            "inputs": [],
            "name": "totalUsers",
            "outputs": [
                {
                    "internalType": "uint256",
                    "name": "",
                    "type": "uint256"
                }
            ],
            "stateMutability": "view",
            "type": "function"
        }
    ],
    "bytecode": "608060405234801561001057600080fd5b506105d5806100206000396000f3fe608060405234801561001057600080fd5b50600436106100415760003560e01c806329803b21146100465780636f77926b14610175578063bff1f9e114610279575b600080fd5b6101736004803603604081101561005c57600080fd5b81019060208101813564010000000081111561007757600080fd5b82018360208201111561008957600080fd5b803590602001918460018302840111640100000000831117156100ab57600080fd5b91908080601f01602080910402602001604051908101604052809392919081815260200183838082843760009201919091525092959493602081019350359150506401000000008111156100fe57600080fd5b82018360208201111561011057600080fd5b8035906020019184600183028401116401000000008311171561013257600080fd5b91908080601f016020809104026020016040519081016040528093929190818152602001838380828437600092019190915250929550610293945050505050565b005b61019b6004803603602081101561018b57600080fd5b50356001600160a01b031661033e565b604051808060200180602001838103835285818151815260200191508051906020019080838360005b838110156101dc5781810151838201526020016101c4565b50505050905090810190601f1680156102095780820380516001836020036101000a031916815260200191505b50838103825284518152845160209182019186019080838360005b8381101561023c578181015183820152602001610224565b50505050905090810190601f1680156102695780820380516001836020036101000a031916815260200191505b5094505050505060405180910390f35b6102816104c0565b60408051918252519081900360200190f35b61029c336104c6565b156102a657600080fd5b33600090815260208181526040909120835190916102c89183918601906104e4565b5081516102de90600183019060208501906104e4565b50503360008181526001602081905260408220805460ff1916821790556002805491820181559091527f405787fa12a823e0f2b7631cc41b3ba8828b3321ca811111fa75cd3aa3bb5ace0180546001600160a01b03191690911790555050565b60608061034a336104c6565b61035357600080fd5b61035b610570565b6001600160a01b038416600090815260208181526040918290208251815460026001821615610100026000190190911604601f81018490049093028101606090810185529381018381529093919284928491908401828280156103ff5780601f106103d4576101008083540402835291602001916103ff565b820191906000526020600020905b8154815290600101906020018083116103e257829003601f168201915b50505050508152602001600182018054600181600116156101000203166002900480601f0160208091040260200160405190810160405280929190818152602001828054600181600116156101000203166002900480156104a15780601f10610476576101008083540402835291602001916104a1565b820191906000526020600020905b81548152906001019060200180831161048457829003601f168201915b5050505050815250509050806000015181602001519250925050915091565b60025490565b6001600160a01b031660009081526001602052604090205460ff1690565b828054600181600116156101000203166002900490600052602060002090601f01602090048101928261051a5760008555610560565b82601f1061053357805160ff1916838001178555610560565b82800160010185558215610560579182015b82811115610560578251825591602001919060010190610545565b5061056c92915061058a565b5090565b604051806040016040528060608152602001606081525090565b5b8082111561056c576000815560010161058b56fea264697066735822122065d8d820511185263cad22b18e740074322a83654b27adeacf263100f8a5d81464736f6c63430007050033",
    "sourcePath": "c:/Code/github/ethereum/ethereum-training/compile-and-deploy/contracts/UsersContract.sol",
    "compiler": {
        "name": "solc",
        "version": "0.7.5+commit.eb77ed08"
    },
    "functionHashes": {
        "getUser(address)": "6f77926b",
        "join(string,string)": "29803b21",
        "totalUsers()": "bff1f9e1"
    },
    "gasEstimates": {
        "creation": {
            "codeDepositCost": "298600",
            "executionCost": "337",
            "totalCost": "298937"
        },
        "external": {
            "getUser(address)": "infinite",
            "join(string,string)": "infinite",
            "totalUsers()": "1020"
        },
        "internal": {
            "userJoined(address)": "911"
        }
    }
}