{
    "contractName": "UsersContract",
    "abi": [
        {
            "anonymous": false,
            "inputs": [
                {
                    "indexed": false,
                    "internalType": "address",
                    "name": "",
                    "type": "address"
                },
                {
                    "indexed": false,
                    "internalType": "string",
                    "name": "",
                    "type": "string"
                }
            ],
            "name": "onUserJoined",
            "type": "event"
        },
        {
            "inputs": [
                {
                    "internalType": "address",
                    "name": "addr",
                    "type": "address"
                }
            ],
            "name": "getUser",
            "outputs": [
                {
                    "internalType": "string",
                    "name": "",
                    "type": "string"
                },
                {
                    "internalType": "string",
                    "name": "",
                    "type": "string"
                }
            ],
            "stateMutability": "view",
            "type": "function"
        },
        {
            "inputs": [
                {
                    "internalType": "string",
                    "name": "name",
                    "type": "string"
                },
                {
                    "internalType": "string",
                    "name": "surname",
                    "type": "string"
                }
            ],
            "name": "join",
            "outputs": [],
            "stateMutability": "nonpayable",
            "type": "function"
        },
        {
            "inputs": [],
            "name": "totalUsers",
            "outputs": [
                {
                    "internalType": "uint256",
                    "name": "",
                    "type": "uint256"
                }
            ],
            "stateMutability": "view",
            "type": "function"
        }
    ],
    "bytecode": "608060405234801561001057600080fd5b50610744806100206000396000f3fe608060405234801561001057600080fd5b50600436106100415760003560e01c806329803b21146100465780636f77926b14610175578063bff1f9e114610279575b600080fd5b6101736004803603604081101561005c57600080fd5b81019060208101813564010000000081111561007757600080fd5b82018360208201111561008957600080fd5b803590602001918460018302840111640100000000831117156100ab57600080fd5b91908080601f01602080910402602001604051908101604052809392919081815260200183838082843760009201919091525092959493602081019350359150506401000000008111156100fe57600080fd5b82018360208201111561011057600080fd5b8035906020019184600183028401116401000000008311171561013257600080fd5b91908080601f016020809104026020016040519081016040528093929190818152602001838380828437600092019190915250929550610293945050505050565b005b61019b6004803603602081101561018b57600080fd5b50356001600160a01b03166104ad565b604051808060200180602001838103835285818151815260200191508051906020019080838360005b838110156101dc5781810151838201526020016101c4565b50505050905090810190601f1680156102095780820380516001836020036101000a031916815260200191505b50838103825284518152845160209182019186019080838360005b8381101561023c578181015183820152602001610224565b50505050905090810190601f1680156102695780820380516001836020036101000a031916815260200191505b5094505050505060405180910390f35b61028161062f565b60408051918252519081900360200190f35b61029c33610635565b156102a657600080fd5b33600090815260208181526040909120835190916102c8918391860190610653565b5081516102de9060018301906020850190610653565b50336000818152600160208181526040808420805460ff1916841790556002805493840181559093527f405787fa12a823e0f2b7631cc41b3ba8828b3321ca811111fa75cd3aa3bb5ace90910180546001600160a01b03191684179055905185517fcb377c658a30311994ed849c5202a7876366b3353f8a9e009226ccd6411935b3939287928792908201918291908501908083835b602083106103935780518252601f199092019160209182019101610374565b6001836020036101000a03801982511681845116808217855250505050505090500180600160fd1b81525060010182805190602001908083835b602083106103ec5780518252601f1990920191602091820191016103cd565b6001836020036101000a0380198251168184511680821785525050505050509050019250505060405160208183030381529060405260405180836001600160a01b0316815260200180602001828103825283818151815260200191508051906020019080838360005b8381101561046d578181015183820152602001610455565b50505050905090810190601f16801561049a5780820380516001836020036101000a031916815260200191505b50935050505060405180910390a1505050565b6060806104b933610635565b6104c257600080fd5b6104ca6106df565b6001600160a01b038416600090815260208181526040918290208251815460026001821615610100026000190190911604601f810184900490930281016060908101855293810183815290939192849284919084018282801561056e5780601f106105435761010080835404028352916020019161056e565b820191906000526020600020905b81548152906001019060200180831161055157829003601f168201915b50505050508152602001600182018054600181600116156101000203166002900480601f0160208091040260200160405190810160405280929190818152602001828054600181600116156101000203166002900480156106105780601f106105e557610100808354040283529160200191610610565b820191906000526020600020905b8154815290600101906020018083116105f357829003601f168201915b5050505050815250509050806000015181602001519250925050915091565b60025490565b6001600160a01b031660009081526001602052604090205460ff1690565b828054600181600116156101000203166002900490600052602060002090601f01602090048101928261068957600085556106cf565b82601f106106a257805160ff19168380011785556106cf565b828001600101855582156106cf579182015b828111156106cf5782518255916020019190600101906106b4565b506106db9291506106f9565b5090565b604051806040016040528060608152602001606081525090565b5b808211156106db57600081556001016106fa56fea2646970667358221220846b36f5709da571826eca45ecc20df1adc89289f3f49f3d47372177bcc292f164736f6c63430007050033",
    "sourcePath": "c:/Code/github/ethereum/ethereum-training/compile-and-deploy/contracts/UsersContract.sol",
    "compiler": {
        "name": "solc",
        "version": "0.7.5+commit.eb77ed08"
    },
    "functionHashes": {
        "getUser(address)": "6f77926b",
        "join(string,string)": "29803b21",
        "totalUsers()": "bff1f9e1"
    },
    "gasEstimates": {
        "creation": {
            "codeDepositCost": "372000",
            "executionCost": "411",
            "totalCost": "372411"
        },
        "external": {
            "getUser(address)": "infinite",
            "join(string,string)": "infinite",
            "totalUsers()": "1020"
        },
        "internal": {
            "userJoined(address)": "911"
        }
    }
}